S00F00004D4350323531352E7372656368
S11370000C942A380C94FE3A0C9447380C94473864
S11370100C9447380C9447380C9447380C944738F0
S11370200C9447380C9447380C9447380C944738E0
S11370300C9447380C9447380C9447380C944738D0
S11370400C9447380C9447380C9447380C944738C0
S11370500C94473811241FBECFE5D8E0DEBFCDBF66
S113706010E0A0E6B0E0EEECFBE702C005900D9264
S1137070A637B107D9F720E0A6E7B0E001C01D921A
S1137080A83AB207E1F70E945F3A0C94E53D0C94EC
S11370900038FC01808181110BC08181823021F490
S11370A084B78F7B84BF1DC084B7806484BF19C03C
S11370B085B7807F85BF2081213029F495B78181F0
S11370C0892B85BF0EC045B7918130E0220F331F55
S11370D0892F90E002C0880F991F2A95E2F7842B2C
S11370E085BF4BB7208130E02B5F3F4F81E090E0BC
S11370F002C0880F991F2A95E2F7842B8BBF7894DE
S11371000895DC01FB018181813099F4808111961D
S11371109C911197892B11968C93119782818130C0
S113712081F4808112969C911297892B12968C93EC
S113713008959081909511968C91119798231196AA
S11371409C930895442329F0FC012281622B6283DD
S113715008956095FC012281622362830895FC01F5
S1137160609592816923462B428308950F931F9360
S1137170CF93DF9300D01F92CDB7DEB78C01FC0113
S11371808381882344F49DB18370892B8DB98EB19A
S113719081608EB904C09DB18370892B8DB9F801CB
S11371A0808184FF16C081E08A8380EB8983BE01DD
S11371B06F5F7F4F86E390E00E9481381A8280E4FB
S11371C08983BE016F5F7F4F86E390E00E94813820
S11371D015C01A8280EB8983BE016F5F7F4F86E3FF
S11371E090E00E94813881E08A8380E48983BE0133
S11371F06F5F7F4F86E390E00E948138F8014281FF
S11372008181348125819081842B832B822B892B4E
S11372108DB98DB180648DB98581803809F47894F5
S11372200F900F900F90DF91CF911F910F910895C0
S1137230CF93DF93EC01198618861D861C867F8305
S11372406E835B874A8740E060E186E390E00E94BA
S1137250A2380BC0EE81FF8180818FB9779BFECF6E
S11372608E819F8101969F838E838A859B859C0155
S1137270215031093B872A87892B61F741E060E17E
S113728086E390E00E94A238DF91CF910895CF93D6
S1137290DF93EC01598748877F836E833D872C8772
S11372A03B872A8740E060E186E390E00E94A238B1
S11372B014C0EE81FF8180818FB9779BFECFE88572
S11372C0F9858FB180838885998501969987888708
S11372D08E819F8101969F838E838C859D859C01E1
S11372E0215031093D872C87892B19F741E060E152
S11372F086E390E00E94A238DF91CF91089541E0A7
S113730068E086E390E00E94A23885E08A95F1F770
S1137310000040E068E086E390E00E94A2388FE33A
S11373209FE10197F1F700C000000895CF93C82FA3
S1137330482F407F60EF89E390E00E94AF380E94BD
S11373407F3980E1C89FA001112460EF89E390E0B8
S11373500E94AF380E947F39CF910895CF93C82FF0
S113736041E062E086E390E00E94A23840E064E0FD
S113737086E390E00E94A2388C2F0E949639CF9128
S11373800895CF93C82F40E066E086E390E00E9422
S1137390A2388C2F0E949639CF910895E82FF0E0FF
S11373A0E15AFF4F8081860F81500E94C1390895B0
S11373B0CF93DF932FEF89EF90E0215080409040EE
S11373C0E1F700C00000C6E7D0E081E089838EE0E9
S11373D088831A82BE0186E390E00E94813880EFA0
S11373E08883BE0189E390E00E94813883E30E9490
S11373F0C13982E30E94C13988E20E94C1398CE01C
S11374000E94C13981E00E94C139DF91CF91089572
S1137410CF93DF93EA010E94CE3903C021960E94E4
S1137420AE3988818111FACFDF91CF9108958F927F
S11374309F92AF92BF92CF92DF92EF92FF920F93FF
S11374401F93CF93DF93CDB7DEB7982E862ECA0154
S1137450ADB6BEB6E22EF12C2DB73EB72E193F09BC
S11374600FB6F8943EBF0FBE2DBF2F5F3F4F69018B
S11374704AE050E0B9010E94863D00E010E005C0FA
S113748080E20E94AE390F5F1F4F0E151F05C0F337
S1137490A601682D892D0E94083A0FB6F894BEBE45
S11374A00FBEADBEDF91CF911F910F91FF90EF9072
S11374B0DF90CF90BF90AF909F908F90089581E020
S11374C08BBF82E08BBF80EE81BB0E94E03C0E94B8
S11374D0D839E12CF12C4091990050E023E06AE086
S11374E082E00E94173A80919900863108F479C0AD
S11374F0F8945FB6812C912C540151C0E199FECFD0
S113750007B600FCFDCFE199FECF34017694762CCA
S113751066247794679483E0F30180935700E89599
S113752007B600FCFDCF00E010E01FC0C7010E94B9
S1137530C63DC82FD0E0C7010196F2E0EF0EF11C62
S11375400E94C63D90E0982F88278C2B9D2B07B670
S113755000FCFDCFE199FECF21E0F6010C01209360
S11375605700E89511240E5F1F4F6801003811057C
S1137570E8F207B600FCFDCFE199FECF85E0F30108
S113758080935700E89507B600FCFDCF81E1809316
S11375905700E895FFEF8F1A9F0AAF0ABF0A24E04D
S11375A082169104A104B10408F4A8CF42E650E085
S11375B063E081E00E94083A40E750E063E082E043
S11375C00E94083A8FEF9BE7E2E981509040E04047
S11375D0E1F700C0000081E00E94C1395FBE0C9455
S11375E00000FFEF23EC89E0F15020408040E1F7F8
S11375F000C0000081E00E94C1396DCF1F920F923C
S11376000FB60F9211242F933F934F935F936F9371
S11376107F938F939F93AF93BF93EF93FF93809147
S113762099008F5F809399008BE890E00E94153D4C
S11376306091890070918A0048E050E080E990E010
S11376400E94CE3D8091890090918A000896909383
S11376508A008093890080E882BBFF91EF91BF91FB
S1137660AF919F918F917F916F915F914F913F91D6
S11376702F910F900FBE0F901F901895CF93DF930B
S113768000D01F92CDB7DEB793E099838A831B8223
S113769023E030E0AE014F5F5F4FBA018BE790E02B
S11376A00E9447398B810F900F900F90DF91CF91FB
S11376B00895CF93DF9300D01F92CDB7DEB792E049
S11376C099838A836B8343E050E0BE016F5F7F4FF1
S11376D08BE790E00E9418390F900F900F90DF9184
S11376E0CF910895CF93DF931F92CDB7DEB780EC8F
S11376F0898341E050E0BE016F5F7F4F8BE790E0EC
S11377000E9418392FEF89EF90E02150804090407B
S1137710E1F700C000000F90DF91CF910895CF935F
S1137720DF93D62FC42F682F8AE20E94593B6D2F16
S113773089E20E94593B6C2F88E20E94593BDF91F9
S1137740CF910895CF93DF9300D01F92CDB7DEB7CA
S113775092E099839FE09A838B8343E050E0BE01DB
S11377606F5F7F4F8BE790E00E9418390F900F9066
S11377700F90DF91CF910895CF92DF92EF92FF9215
S1137780CF93C82F6A017B01222309F44AC0CB019D
S1137790BA01689412F8969587957795679516942B
S11377A0D1F72C2F30E0285F3F4F822F880F880FAE
S11377B00E94593BD701C601072E7BE1B695A795D8
S11377C0979587957A95D1F7702DCC0FCC0F6C2DAA
S11377D06295660F607E862B682F686081E28C0F4D
S11377E00E94593BC701B601052E5BE0969587952B
S11377F0779567955A95D1F7502D83E28C0F0E94A7
S1137800593BC701B601052E53E1969587957795A7
S113781067955A95D1F7502D82E28C0F0E94593BFF
S11378201DC0CB01BA01689412F896958795779597
S113783067951694D1F72C2F30E0285F3F4F822FA5
S1137840880F880F0E94593B6C2D6295660F607EED
S11378508C2F880F880F8F5D0E94593BCF91FF902A
S1137860EF90DF90CF900895CF92DF92EF92FF9246
S1137870CF93DF93C82F6A017B01222309F45CC0F4
S1137880CB01BA01689412F8969587957795679518
S11378901694D1F7DC2FDD0FDD0FC33010F024E098
S11378A001C020E0822F8D0F0E94593B8C2D8295C0
S11378B0880F807EB701A601032E3BE1769567957C
S11378C0579547953A95D1F7302D482B642F68602A
S11378D0C33010F084E001C080E08D0F8F5F0E9400
S11378E0593BC701B601052E5BE0969587957795C0
S11378F067955A95D1F7502DC33010F024E001C09C
S113790020E02D0F83E0820F0E94593BC701B6018E
S1137910052E53E196958795779567955A95D1F7F6
S1137920502DC33010F024E001C020E02D0F82E080
S1137930820F0E94593B23C0CB01BA01689412F80C
S113794096958795779567951694D1F7DC2FDD0F7B
S1137950DD0FC33010F024E001C020E0822F8D0F32
S11379600E94593B6C2D6295660F607EC33010F007
S113797084E001C080E08D0F8F5F0E94593BDF914E
S1137980CF91FF90EF90DF90CF900895CF93DF9346
S113799000D01F92CDB7DEB792E099839BE29A8321
S11379A08B8343E050E0BE016F5F7F4F8BE790E035
S11379B00E9418390F900F900F90DF91CF91089586
S11379C0E9E7F0E081E080831182EBE7F0E080E119
S11379D0808384E18383CF010E94B6380E94723B86
S11379E083E00E94C63C80E80E94A23B47E86AEF1D
S11379F083E00E948F3B21E040E050E0BA0180E048
S1137A000E94343C21E040E050E0BA0180E00E9452
S1137A10BC3B67E08DE00E94593B80E00E94A23BA2
S1137A2089E790E00E9449380895EF92FF920F93FE
S1137A301F93CF93DF937C018CE20E943E3B80FD39
S1137A4004C081FF5BC0D1E001C0D0E08EE00E94A1
S1137A503E3B807490E0082E892F000C881F990B00
S1137A60000C881F991FF701948180FB95F994837A
S1137A70D295D07F82E68D0F0E943E3BC82F88703E
S1137A8090E0959587959595879595958795F701B8
S1137A90948180FB94F9948381E68D0F0E943E3B90
S1137AA090E0A0E0B0E0880F991FAA1FBB1F880FC9
S1137AB0991FAA1FBB1F880F991FAA1FBB1FC2951E
S1137AC0C695C7708C2BF70180839183A283B383FF
S1137AD0C0E00CC00C2F10E08C2F8D0F8A590E942F
S1137AE03E3BF701E00FF11F8583CF5FC83091F76C
S1137AF060E08CE20E94593B81E001C080E0DF91AC
S1137B00CF911F910F91FF90EF9008954532510549
S1137B1020F4423010F00C94913DFB011082CB0113
S1137B200895BB274A3031F4992322F4BDE290959D
S1137B3081959F4F0C949D3DBB27FB015527AA2798
S1137B40880F991FAA1FA41710F0A41B83955051E6
S1137B50B9F7A05DAA3308F0A95DA193009779F75E
S1137B60B111B1931192CB010C94B63DDC01FC012F
S1137B70672F71917723E1F7329704C07C916D935D
S1137B8070836291AE17BF07C8F30895E199FECFE1
S1137B909FBB8EBBE09A99278DB30895DC01CB017E
S1137BA003C02D910E94D93D41505040D0F7089513
S1137BB0262FE199FECF9FBB8EBB2DBB0FB6F89449
S1117BC0E29AE19A0FBE01960895F894FFCF61
S1137BCE80C06272616E6368696E6720746F200094
S1097BDE696D616765009A
S90370008C
