S00F00004D4350323531352E7372656368
S11300000C942A000C946E020C9447000C94470044
S11300100C9447000C9447000C9447000C94470040
S11300200C9447000C9447000C9447000C94470030
S11300300C9447000C9447000C9447000C94470020
S11300400C9447000C9447000C9447000C94470010
S11300500C94470011241FBECFE5D8E0DEBFCDBF0E
S113006010E0A0E6B0E0E8E3FCE002C005900D92E9
S1130070A036B107D9F720E0A0E6B0E001C01D9298
S1130080A039B207E1F70E9436020C941A060C94C8
S11300900000FC01808181110BC08181823021F438
S11300A084B78F7B84BF1DC084B7806484BF19C0AC
S11300B085B7807F85BF2081213029F495B7818160
S11300C0892B85BF0EC045B7918130E0220F331FC5
S11300D0892F90E002C0880F991F2A95E2F7842B9C
S11300E085BF4BB7208130E02B5F3F4F81E090E02C
S11300F002C0880F991F2A95E2F7842B8BBF78944E
S11301000895DC01FB018181813099F4808111968D
S11301109C911197892B11968C9311978281813030
S113012081F4808112969C911297892B12968C935C
S113013008959081909511968C911197982311961A
S11301409C930895442329F0FC012281622B62834D
S113015008956095FC012281622362830895FC0165
S1130160609592816923462B428308950F931F93D0
S1130170CF93DF9300D01F92CDB7DEB78C01FC0183
S11301808381882344F49DB18370892B8DB98EB10A
S113019081608EB904C09DB18370892B8DB9F8013B
S11301A0808184FF16C081E08A8380EB8983BE014D
S11301B06F5F7F4F86E390E00E9481001A8280E4A3
S11301C08983BE016F5F7F4F86E390E00E948100C8
S11301D015C01A8280EB8983BE016F5F7F4F86E36F
S11301E090E00E94810081E08A8380E48983BE01DB
S11301F06F5F7F4F86E390E00E948100F8014281A7
S11302008181348125819081842B832B822B892BBE
S11302108DB98DB180648DB98581803809F4789465
S11302200F900F900F90DF91CF911F910F91089530
S1130230CF93DF93EC01198618861D861C867F8375
S11302406E835B874A8740E060E186E390E00E942A
S1130250A2000BC0EE81FF8180818FB9779BFECF16
S11302608E819F8101969F838E838A859B859C01C5
S1130270215031093B872A87892B61F741E060E1EE
S113028086E390E00E94A200DF91CF910895CF937E
S1130290DF93EC01598748877F836E833D872C87E2
S11302A03B872A8740E060E186E390E00E94A20059
S11302B014C0EE81FF8180818FB9779BFECFE885E2
S11302C0F9858FB180838885998501969987888778
S11302D08E819F8101969F838E838C859D859C0151
S11302E0215031093D872C87892B19F741E060E1C2
S11302F086E390E00E94A200DF91CF91089541E04F
S113030068E086E390E00E94A20085E08A95F1F718
S1130310000040E068E086E390E00E94A2008FE3E2
S11303209FE10197F1F700C000000895CF93C82F13
S1130330482F407F60EF89E390E00E94AF000E9465
S11303407F0180E1C89FA001112460EF89E390E060
S11303500E94AF000E947F01CF910895CF93C82FD0
S113036041E062E086E390E00E94A20040E064E0A5
S113037086E390E00E94A2008C2F0E949601CF9108
S11303800895CF93C82F40E066E086E390E00E9492
S1130390A2008C2F0E949601CF910895CF93DF93F2
S11303A0EC0103C021960E94AE0188818111FACF2D
S11303B0DF91CF910895CF93DF932FEF89EF90E0F2
S11303C0215080409040E1F700C00000C0E6D0E03A
S11303D081E089838EE088831A82BE0186E390E0FF
S11303E00E94810080EF8883BE0189E390E00E942F
S11303F0810083E30E94C10182E30E94C10188E27B
S11304000E94C1018CE00E94C10181E00E94C101EF
S1130410DF91CF910895EF92FF920F931F93CF93A3
S1130420DF93CDB7DEB7EDB6FEB62DB73EB7261BCC
S113043031090FB6F8943EBF0FBE2DBF0DB71EB7DE
S11304400F5F1F4F4AE050E0B8010E94DA05C8016F
S11304500E94CE010FB6F894FEBE0FBEEDBEDF9132
S1130460CF911F910F91FF90EF90089580EE81BB83
S1130470E6E8F0E080818061807F88608F7D808302
S1130480E2E8F0E089EF9FE0A0E0B0E080839183B0
S1130490A283B38381E0858382E0868383E08783BC
S11304A084E080870E943D040E94DB0180918100EA
S11304B063E090E00E940B0260E082E890E00E941A
S11304C072042FEF83EC99E0215080409040E1F7D3
S11304D000C0000081E00E94C101E8CF1F920F928A
S11304E00FB60F9211242F933F934F935F936F9303
S11304F07F938F939F93AF93BF93EF93FF938091D9
S113050081008F5F8093810083E790E00E94530510
S113051080E882BBFF91EF91BF91AF919F918F9142
S11305207F916F915F914F913F912F910F900FBEEB
S11305300F901F901895CF93DF9300D01F92CDB7E3
S1130540DEB793E099838A831B8223E030E0AE0117
S11305504F5F5F4FBA0185E690E00E9447018B81AF
S11305600F900F900F90DF91CF910895CF93DF9369
S113057000D01F92CDB7DEB792E099838A836B8354
S113058043E050E0BE016F5F7F4F85E690E00E943C
S113059018010F900F900F90DF91CF910895CF9392
S11305A0DF931F92CDB7DEB780EC898341E050E042
S11305B0BE016F5F7F4F85E690E00E9418012FEF28
S11305C089EF90E0215080409040E1F700C00000A6
S11305D00F90DF91CF910895CF93DF93D62FC42F3F
S11305E0682F8AE20E94B6026D2F89E20E94B60249
S11305F06C2F88E20E94B602DF91CF910895CF93C9
S1130600DF9300D01F92CDB7DEB792E099839FE0CD
S11306109A838B8343E050E0BE016F5F7F4F85E692
S113062090E00E9418010F900F900F90DF91CF91EE
S11306300895CF92DF92EF92FF92CF93C82F6A0171
S11306407B01222309F44AC0CB01BA01689412F851
S113065096958795779567951694D1F72C2F30E06A
S1130660285F3F4F822F880F880F0E94B602D70160
S1130670C601072E7BE1B695A795979587957A9540
S1130680D1F7702DCC0FCC0F6C2D6295660F607E68
S1130690862B682F686081E28C0F0E94B602C70126
S11306A0B601052E5BE096958795779567955A95E3
S11306B0D1F7502D83E28C0F0E94B602C701B60118
S11306C0052E53E196958795779567955A95D1F7B9
S11306D0502D82E28C0F0E94B6021DC0CB01BA01DC
S11306E0689412F896958795779567951694D1F73F
S11306F02C2F30E0285F3F4F822F880F880F0E94F5
S1130700B6026C2D6295660F607E8C2F880F880F61
S11307108F5D0E94B602CF91FF90EF90DF90CF9053
S11307200895CF92DF92EF92FF92CF93DF93C82F79
S11307306A017B01222309F45CC0CB01BA016894ED
S113074012F896958795779567951694D1F7DC2FCF
S1130750DD0FDD0FC33010F024E001C020E0822F54
S11307608D0F0E94B6028C2D8295880F807EB70172
S1130770A601032E3BE176956795579547953A95E3
S1130780D1F7302D482B642F6860C33010F084E01B
S113079001C080E08D0F8F5F0E94B602C701B601D1
S11307A0052E5BE096958795779567955A95D1F7D1
S11307B0502DC33010F024E001C020E02D0F83E061
S11307C0820F0E94B602C701B601052E53E1969529
S11307D08795779567955A95D1F7502DC33010F0CA
S11307E024E001C020E02D0F82E0820F0E94B602B7
S11307F023C0CB01BA01689412F896958795779532
S113080067951694D1F7DC2FDD0FDD0FC33010F0A0
S113081024E001C020E0822F8D0F0E94B6026C2DCF
S11308206295660F607EC33010F084E001C080E002
S11308308D0F8F5F0E94B602DF91CF91FF90EF90F2
S1130840DF90CF900895CF93DF9300D01F92CDB760
S1130850DEB792E099839BE29A838B8343E050E076
S1130860BE016F5F7F4F85E690E00E9418010F90F4
S11308700F900F90DF91CF910895E3E6F0E081E0CF
S113088080831182E5E6F0E080E1808384E1838364
S1130890CF010E94B6000E94CF0283E00E9423048D
S11308A080E80E94FF0247E86AEF83E00E94EC02BE
S11308B021E040E050E0BA0180E00E94910321E091
S11308C040E050E0BA0180E00E94190367E08DE047
S11308D00E94B60280E00E94FF0283E690E00E943C
S11308E049000895EF92FF920F931F93CF93DF93E4
S11308F0CDB7DEB729970FB6F894DEBF0FBECDBFD4
S11309008C01F62EFC01848184FF59C08081918181
S1130910A281B381BC01CD01689412F896958795A4
S1130920779567951694D1F7EF2CEE0CEE0CEE0C40
S1130930EE0C81E38E0D0E94B602F8018081918154
S1130940A281B381682F6295660F607E072E7BE1DA
S1130950B695A795979587957A95D1F7702D862B9F
S1130960682F686082E38E0D0E94B602F8018081D0
S11309709181A281B381BC01CD01052E53E19695ED
S11309808795779567955A95D1F7502D83E38E0D0A
S11309900E94B602F80180819181A281B381BC01D9
S11309A0CD01052E5BE096958795779567955A95C9
S11309B0D1F7502D84E38E0D0E94B60221C0F801B8
S11309C080819181A281B381BC01CD01689412F828
S11309D096958795779567951694D1F7EF2CEE0C3D
S11309E0EE0CEE0CEE0C81E38E0D0E94B602F801C3
S11309F060816295660F607E82E38E0D0E94B6026E
S1130A00F801848185FF08C060E48F2D8295807F82
S1130A108B5C0E94B6022EC0F80164816F708F2D2A
S1130A208295807F8B5C0E94B60281E4898340E0DA
S1130A300FC0F9013196D801A20FB31F15968C91FE
S1130A4021E030E02C0F3D1FE20FF31F80834F5F46
S1130A50242F30E0F80184818F7090E02817390743
S1130A6044F349E050E0BE016F5F7F4F85E690E0BC
S1130A700E94180181E88F0D898341E050E0BE0196
S1130A806F5F7F4F85E690E00E94180129960FB6AC
S1130A90F894DEBF0FBECDBFDF91CF911F910F91B0
S1130AA0FF90EF9008958F929F92AF92BF92FF9222
S1130AB00F931F93CF93DF938C018EE00E949B02D0
S1130AC08C3029F08E3009F06AC081E001C080E0EA
S1130AD0F82EFF0CFF0CFF0CFF0C85E68F0D0E9417
S1130AE09B02282F2F70F8019481392F307F807456
S1130AF090E0082E892F000C881F990B000C881F8A
S1130B00991F932F922B80FB95F99483C2E6CF0D06
S1130B108C2F0E949B02887090E0959587959595FF
S1130B20879595958795F801948180FB94F9948332
S1130B3081E68F0D0E949B0290E0A0E0B0E0F801F6
S1130B4080839183A283B3838824982EA92EBA2EFE
S1130B508C2F0E949B02A5019401282BDA01C90164
S1130B60F80180839183A283B383C0E0D0E00AC0FC
S1130B708C2F8F0D8A590E949B02F801EC0FFD1FE8
S1130B8085832196F80184818F7090E08C179D07EE
S1130B907CF360E08CE20E94B60281E001C080E058
S1130BA0DF91CF911F910F91FF90BF90AF909F90D5
S1130BB08F9008954532510520F4423010F00C9482
S1130BC0E505FB011082CB010895BB274A3031F4BF
S1130BD0992322F4BDE2909581959F4F0C94F105E1
S1130BE0BB27FB015527AA27880F991FAA1FA41703
S1130BF010F0A41B83955051B9F7A05DAA3308F0F7
S1130C00A95DA193009779F7B111B1931192CB012A
S1130C100C940A06DC01FC01672F71917723E1F73C
S1130C20329704C07C916D9370836291AE17BF07B5
S10B0C30C8F30895F894FFCF06
S9030000FC
