S00F00004D4350323531352E7372656368
S11370000C942A380C947F3B0C9447380C944738E2
S11370100C9447380C9447380C9447380C944738F0
S11370200C9447380C9447380C9447380C944738E0
S11370300C9447380C9447380C9447380C944738D0
S11370400C9447380C9447380C9447380C944738C0
S11370500C94473811241FBECFE5D8E0DEBFCDBF66
S113706010E0A0E6B0E0E2E4FCE702C005900D9277
S1137070A239B107D9F720E0A2E9B0E001C01D921E
S1137080AE3BB207E1F70E94143B0C941F3E0C94F4
S113709000380F931F93CF93DF938C01C0E0D0E0AF
S11370A00AC0E199FECFF8012081820F911D0E9450
S11370B0003ED80FCF5F8C2F90E0F801228130E0A2
S11370C02C5F3F4F8217930764F38D2F90E09195C7
S11370D081959109238130E08217930711F481E0AF
S11370E001C080E0DF91CF911F910F910895EF923D
S11370F0FF920F931F93CF93C82F8B01E82EF12C8F
S1137100C70103960E94003EF8018483C083811165
S113711012C0C7010E94003EF8018283C80FCB5FF2
S1137120C1839701280F311DC90104960E94003EB6
S1137130F801838305C0813019F4F801128203C079
S1137140C8010E944938CF911F910F91FF90EF9091
S113715008959F92AF92BF92CF92DF92EF92FF92E7
S11371600F931F93CF93DF937C01C12CD12CE19912
S1137170FECF07B600FCFDCFE199FECFE09192006F
S113718020E8E29FF001112483E080935700E89502
S113719007B600FCFDCFA12C39C0B701F7018181EE
S11371A00E947738C82ED12CF7019280992089F15A
S11371B0BB24B39429C0F701C081D0E02396CE014B
S11371C08B0D911D0E94003E082F10E081E08B0D75
S11371D09E01280F311DC901B394B3940E94003E4F
S11371E090E0982F8827802B912B07B600FCFDCFC9
S11371F0E199FECFEA2DF0E021E00C012093570045
S1137200E8951124A394A394B914A8F2AA200CF02D
S1137210C4CF07B600FCFDCFE199FECF8091920068
S113722030E8839FF001112495E090935700E8958E
S113723007B600FCFDCF91E190935700E895F70164
S11372409281992321F08F5F8093920090CFCA940A
S1137250CD2811F481E001C080E0DF91CF911F912E
S11372600F91FF90EF90DF90CF90BF90AF909F90E1
S11372700895FC01808181110BC08181823021F449
S113728084B78F7B84BF1DC084B7806484BF19C05A
S113729085B7807F85BF2081213029F495B781810E
S11372A0892B85BF0EC045B7918130E0220F331F73
S11372B0892F90E002C0880F991F2A95E2F7842B4A
S11372C085BF4BB7208130E02B5F3F4F81E090E0DA
S11372D002C0880F991F2A95E2F7842B8BBF7894FC
S11372E00895DC01FB018181813099F4808111963C
S11372F09C911197892B11968C93119782818130DF
S113730081F4808112969C911297892B12968C930A
S113731008959081909511968C91119798231196C8
S11373209C930895442329F0FC012281622B6283FB
S113733008956095FC012281622362830895FC0113
S1137340609592816923462B428308950F931F937E
S1137350CF93DF9300D01F92CDB7DEB78C01FC0131
S11373608381882344F49DB18370892B8DB98EB1B8
S113737081608EB904C09DB18370892B8DB9F801E9
S1137380808184FF16C081E08A8380EB8983BE01FB
S11373906F5F7F4F86E390E00E9471391A8280E428
S11373A08983BE016F5F7F4F86E390E00E9471394D
S11373B015C01A8280EB8983BE016F5F7F4F86E31D
S11373C090E00E94713981E08A8380E48983BE0160
S11373D06F5F7F4F86E390E00E947139F80142812C
S11373E08181348125819081842B832B822B892B6D
S11373F08DB98DB180648DB98581803809F4789414
S11374000F900F900F90DF91CF911F910F910895DE
S1137410CF93DF93EC01198618861D861C867F8323
S11374206E835B874A8740E060E186E390E00E94D8
S113743092390BC0EE81FF8180818FB9779BFECF9B
S11374408E819F8101969F838E838A859B859C0173
S1137450215031093B872A87892B61F741E060E19C
S113746086E390E00E949239DF91CF910895CF9303
S1137470DF93EC01598748877F836E833D872C8790
S11374803B872A8740E060E186E390E00E949239DE
S113749014C0EE81FF8180818FB9779BFECFE88590
S11374A0F9858FB180838885998501969987888726
S11374B08E819F8101969F838E838C859D859C01FF
S11374C0215031093D872C87892B19F741E060E170
S11374D086E390E00E949239DF91CF91089541E0D4
S11374E068E086E390E00E94923985E08A95F1F79E
S11374F0000040E068E086E390E00E9492398FE368
S11375009FE10197F1F700C000000895CF93C82FC1
S1137510482F407F60EF89E390E00E949F390E94EA
S11375206F3A80E1C89FA001112460EF89E390E0E5
S11375300E949F390E946F3ACF910895CF93C82F2C
S113754041E062E086E390E00E94923940E064E02A
S113755086E390E00E9492398C2F0E94863ACF9164
S11375600895CF93C82F40E066E086E390E00E9440
S113757092398C2F0E94863ACF910895CF93DF934E
S1137580EC0103C021960E949E3A88818111FACFB2
S1137590DF91CF910895E82FF0E0E15AFF4F808109
S11375A0860F81500E94B13A0895CF93DF932FEF55
S11375B089EF90E0215080409040E1F700C0000046
S11375C0C3E9D0E081E089838EE088831A82BE011A
S11375D086E390E00E94713980EF8883BE0189E3DD
S11375E090E00E94713983E30E94B13A82E30E94E1
S11375F0B13A88E20E94B13A8CE00E94B13A81E04B
S11376000E94B13ADF91CF910895CF93DF93EA01BD
S11376100E94CB3A03C021960E949E3A8881811130
S1137620FACFDF91CF91089581E08BBF82E08BBFC9
S113763080EE81BB0E945A3D0E94D53A82E690E0DA
S11376400E94BE3AC09197002C2F30E08091A80090
S11376509091A9002817390798F48901C8010E945C
S1137660003ED82F80939600C8010E94003E8C0FE4
S11376708B5F80939700D11103C081E08093BD009C
S11376808091BD00882371F1F894CFB788EB90E026
S11376900E94A9388823F9F081E00E94B13A40E7BA
S11376A050E063E081E00E94053B4EE750E063E078
S11376B082E00E94053B2FEF8BE792E92150804046
S11376C09040E1F700C0000081E00E94B13ACFBFD2
S11376D00C94000007C081E00E94B13A84E890E075
S11376E00E94BE3A2FEF83EC99E0215080409040F5
S11376F0E1F700C0000081E00E94B13A9FCF1F92E1
S11377000F920FB60F9211242F933F934F935F93D1
S11377106F937F938F939F93AF93BF93EF93FF9355
S11377208AEA90E00E948F3D6091A8007091A900C0
S113773048E050E08FEA90E00E94083E8091A80063
S11377409091A90008969093A9008093A800FF91B6
S1137750EF91BF91AF919F918F917F916F915F91C5
S11377604F913F912F910F900FBE0F901F9018953E
S1137770CF93DF9300D01F92CDB7DEB793E0998308
S11377808A831B8223E030E0AE014F5F5F4FBA0172
S11377908AE990E00E94373A8B810F900F900F9006
S11377A0DF91CF910895CF93DF9300D01F92CDB78F
S11377B0DEB792E099838A836B8343E050E0BE0195
S11377C06F5F7F4F8AE990E00E94083A0F900F9014
S11377D00F90DF91CF910895CF93DF931F92CDB790
S11377E0DEB780EC898341E050E0BE016F5F7F4FDC
S11377F08AE990E00E94083A2FEF89EF90E0215047
S113780080409040E1F700C000000F90DF91CF91DD
S11378100895CF93DF93D62FC42F682F8AE20E9456
S1137820D33B6D2F89E20E94D33B6C2F88E20E94E8
S1137830D33BDF91CF910895CF93DF9300D01F9274
S1137840CDB7DEB792E099839FE09A838B8343E0C0
S113785050E0BE016F5F7F4F8AE990E00E94083AD2
S11378600F900F900F90DF91CF910895CF92DF92F8
S1137870EF92FF92CF93C82F6A017B01222309F470
S11378804AC0CB01BA01689412F89695879577950A
S113789067951694D1F72C2F30E0285F3F4F822F45
S11378A0880F880F0E94D33BD701C601072E7BE1C6
S11378B0B695A795979587957A95D1F7702DCC0FA6
S11378C0CC0F6C2D6295660F607E862B682F6860E6
S11378D081E28C0F0E94D33BC701B601052E5BE009
S11378E096958795779567955A95D1F7502D83E2AC
S11378F08C0F0E94D33BC701B601052E53E1969528
S11379008795779567955A95D1F7502D82E28C0F1C
S11379100E94D33B1DC0CB01BA01689412F896951E
S11379208795779567951694D1F72C2F30E0285FCB
S11379303F4F822F880F880F0E94D33B6C2D629596
S1137940660F607E8C2F880F880F8F5D0E94D33B5B
S1137950CF91FF90EF90DF90CF900895CF92DF9278
S1137960EF92FF92CF93DF93C82F6A017B0122230A
S113797009F45CC0CB01BA01689412F89695879516
S1137980779567951694D1F7DC2FDD0FDD0FC330A3
S113799010F024E001C020E0822F8D0F0E94D33B21
S11379A08C2D8295880F807EB701A601032E3BE1C2
S11379B076956795579547953A95D1F7302D482B8D
S11379C0642F6860C33010F084E001C080E08D0F44
S11379D08F5F0E94D33BC701B601052E5BE09695ED
S11379E08795779567955A95D1F7502DC33010F048
S11379F024E001C020E02D0F83E0820F0E94D33BDE
S1137A00C701B601052E53E196958795779567953D
S1137A105A95D1F7502DC33010F024E001C020E076
S1137A202D0F82E0820F0E94D33B23C0CB01BA0109
S1137A30689412F896958795779567951694D1F77B
S1137A40DC2FDD0FDD0FC33010F024E001C020E097
S1137A50822F8D0F0E94D33B6C2D6295660F607E42
S1137A60C33010F084E001C080E08D0F8F5F0E946E
S1137A70D33BDF91CF91FF90EF90DF90CF900895AB
S1137A80CF93DF9300D01F92CDB7DEB792E09983F6
S1137A909BE29A838B8343E050E0BE016F5F7F4F8C
S1137AA08AE990E00E94083A0F900F900F90DF91BE
S1137AB0CF910895E8E9F0E081E080831182EAE95A
S1137AC0F0E080E1808384E18383CF010E94A639C2
S1137AD00E94EC3B83E00E94403D80E80E941C3CF5
S1137AE047E86AEF83E00E94093C21E040E050E06F
S1137AF0BA0180E00E94AE3C21E040E050E0BA01CF
S1137B0080E00E94363C67E08DE00E94D33B80E039
S1137B100E941C3C88E990E00E9439390895EF9254
S1137B20FF920F931F93CF93DF937C018CE20E940B
S1137B30B83B80FD04C081FF5BC0D1E001C0D0E050
S1137B408EE00E94B83B807490E0082E892F000CD0
S1137B50881F990B000C881F991FF701948180FBE3
S1137B6095F99483D295D07F82E68D0F0E94B83B1D
S1137B70C82F887090E095958795959587959595EC
S1137B808795F701948180FB94F9948381E68D0FA6
S1137B900E94B83B90E0A0E0B0E0880F991FAA1FB4
S1137BA0BB1F880F991FAA1FBB1F880F991FAA1FED
S1137BB0BB1FC295C695C7708C2BF7018083918338
S1137BC0A283B383C0E00CC00C2F10E08C2F8D0F68
S1137BD08A590E94B83BF701E00FF11F8583CF5FFC
S1137BE0C83091F760E08CE20E94D33B81E001C091
S1137BF080E0DF91CF911F910F91FF90EF90089556
S1137C00E199FECF9FBB8EBBE09A99278DB308956F
S1137C10DC01CB0103C02D910E94133E4150504022
S1137C20D0F70895262FE199FECF9FBB8EBB2DBBC5
S1137C300FB6F894E29AE19A0FBE01960895F8946B
S1057C40FFCF70
S1137C4280C057616974696E6720496D6167650018
S1137C526272616E6368696E6720746F2000696D79
S1137C6261676500496E76616C696420496D61677C
S1057C726500A7
S90370008C
