:100000000C942A000C9434000C9434000C943400AA
:100010000C9434000C9434000C9434000C94340090
:100020000C9434000C9434000C9434000C94340080
:100030000C9434000C9434000C9434000C94340070
:100040000C9434000C9434000C9434000C94340060
:100050000C94340011241FBECFE5D8E0DEBFCDBF25
:100060000E9436000C9458000C94000080E881BB7C
:1000700081E08BBF1BBE82B3806882BB2FEF83EC15
:1000800099E0215080409040E1F700C0000082B329
:100090008F7782BB2FEF83EC99E021508040904016
:1000A000E1F700C00000809BE3CF0C94001CE0CF80
:0400B000F894FFCFF2
:00000001FF
